:030000000201BC3E
:0C01BC00787FE4F6D8FD75813F02020355
:1004E100C2A68F807F057E0012045AD2A77F057EA7
:0704F1000012045AC2A72209
:1004F800D2A68F807F057E0012045AD2A77F057E80
:070508000012045AC2A722F1
:10049900C2A5C2A77F381204E17F0C1204E17F06CE
:0804A9001204E17F010204E1ED
:10047A008F188D19EF64017005E51914800AE518C3
:0F048A006402700AE519243F4480FF1204E12246
:0A0567008B1C12047AAF1C0204F88A
:060434008B138A148915E8
:10043A0012047AE4F516AB13AA14A9158516827567
:0F044A0083001200F2FF60071204F8051680E726
:010459002280
:08040D008E188F198C1A8D1B4B
:100415007F017E00E4FBEBC3951BE51A6480F8744D
:0E0425008098500AAC18AD1912011F0B80E828
:0104330022A6
:02038E008B15CD
:1003900012047A851617AF177E00D3EF940074808D
:1003A0009480402CEF24FFFDEE34FFFC7F0A120402
:1003B0000DAD157C00CFCDCFCECCCE1201317C005F
:1003C0007D0A120131ED2430FF1204F8151780C6A2
:0103D000220A
:10045A00D3EF9400EE6480948040147D6E7C00EDAE
:0F046A001D70011CED4C70F7EF1F70E41E80E158
:010479002260
:1004C9005F545F005F525F0054445F0052445F0015
:0804D90052415F0054415F0035
:10000E00012601012B0002280000C180C102C1039C
:02001E00C1011E
:1004B100758920758BBF758DBFD28E7598F0438776
:0804C10080D2AFD2ACC2B2221E
:10050F005389F0438901C28DD28C758CFC758A1783
:07051F00D2A9D2B9D2AF222C
:100328008D12EF14601814601D14602214602714D5
:10033800602C2405704F7BFF7A0479C980267BFFE7
:100348007A0479CD801E7BFF7A0479D180167BFFF1
:100358007A0479D5800E7BFF7A0479D980067BFFF1
:100368007A0479DD7D017F021204347FE87E03126E
:10037800045A751603AB127D017F0212038E7FE8C3
:060388007E0312045A225C
:0C055B00AB077516037D037F0102038EC1
:1002BA00E52E2403FFE433AD07FCE4FEFFC3EF9D04
:1002CA00EE9C502420000EEF64014E700874362F05
:1002DA00F8E4F68013742D2FF8E6FB74362FF8A68F
:1002EA00030FBF00010E80D5853621E53770047BE8
:1002FA00028005E5372402FBEB7C00FD7E007F01CE
:10030A00C3EF9DEE9C501074362FF8E62521F52197
:0D031A000FBF00010E80E974362FF8A621F8
:0103270022B3
:0E054D00C299D29BD2B28F993099FDC29922E9
:10052600C299C203D2B2E4F524F525C29BD2992022
:070536000304C20380F92257
:1003D100E4F522F523C202C2B23002FDC202852C2D
:1003E100277F017E00E52A2403FDE433FCC3EF9D52
:1003F100EE9C5010742C2FF8E62527F5270FBF002F
:0C040100010E80E1B2001202BA020526D2
:10024800C2A31204B11204997F801204E17F5212F2
:1002580004F87F3A1204F8C2983098FDA201E433FA
:10026800FD7F04120328E52BB52616300113A201E1
:10027800E433FD7F05120328AF2612054DC29D8089
:100288000E7F0A7E0012045AB20180CB20000512AC
:1002980003D180F8AF2F7E0012055BE4F522F52329
:1002A800C202C2B23002FDD29DE4F522F523C2009B
:0202B80080A51F
:03002300020026B2
:10002600C0E0C0F0C083C082C0D075D000C000C0A0
:1000360001C002C003C004C005C006C0073098490D
:10004600C298209A3E7F017E0012045A0523E523BA
:100056007002052214242CF8A699742B2523F8E6A1
:10006600FD7F01120328E52E2404FFE433FEC3E5D9
:10007600239FE5229E400CAD237F03120328D20264
:10008600852E2A309A0385992B309945209B42C2AA
:100096009920033DC29B0525E525700205241424FD
:1000A60036F8E6F59974352525F8E6FDE4FF1203E2
:1000B60028E5372403FFE433FEC3E5259FE5249EA8
:1000C600400FAD257F02120328D203752400752543
:1000D60000D007D006D005D004D003D002D001D07E
:0C00E60000D0D0D082D083D0F0D0E03227
:03000B0002053DAE
:10053D00C0E00529E5297002052812050FD0E0322B
:1001C800020248E493A3F8E493A34003F68001F203
:1001D80008DFF48029E493A3F85407240CC8C33338
:1001E800C4540F4420C8834004F456800146F6DF07
:1001F800E4800B010204081020408090000EE47E89
:10020800019360BCA3FF543F30E509541FFEE493FB
:10021800A360010ECF54C025E060A840B8E493A3C2
:10022800FAE493A3F8E493A3C8C582C8CAC583CAED
:10023800F0A3C8C582C8CAC583CADFE9DEE780BEA5
:0100200000DF
:1000F200BB010CE58229F582E5833AF583E02250C3
:1001020006E92582F8E622BBFE06E92582F8E2220C
:0D011200E58229F582E5833AF583E4932226
:10011F00EF8DF0A4A8F0CF8CF0A428CE8DF0A42EF4
:02012F00FE22AE
:10013100C2D5EC30E709B2D5E4C39DFDE49CFCEEE9
:1001410030E715B2D5E4C39FFFE49EFE120167C3F9
:10015100E49DFDE49CFC800312016730D507C3E4F4
:060161009FFFE49EFE2258
:10016700BC000BBE0029EF8DF084FFADF022E4CC7C
:10017700F875F008EF2FFFEE33FEEC33FCEE9DEC45
:10018700984005FCEE9DFE0FD5F0E9E4CEFD22ED8B
:10019700F8F5F0EE8420D21CFEADF075F008EF2FD5
:1001A700FFED33FD4007985006D5F0F222C398FDC6
:0501B7000FD5F0EA2263
:00000001FF
