:0300000002013FBB
:0C013F00787FE4F6D8FD75813F02018650
:10046100C2A68F807F057E00120411D2A77F057E70
:0704710000120411C2A722D2
:10047800D2A68F807F057E00120411D2A77F057E49
:0704880000120411C2A722BB
:10043100C2A5C2A77F381204617F0C1204617F0636
:080441001204617F0102046155
:10041100D3EF9400EE6480948040147D6E7C00EDF7
:0F0421001D70011CED4C70F7EF1F70E41E80E1A1
:0104300022A9
:10000E00012601012B0002280000C180C102C1039C
:02001E00C1011E
:10044900758920758BF3758DF3D28E7598F0438776
:0804590080D2AFD2ACC2B22286
:10048F005389F0438901C28DD28C758CFC758A1704
:07049F00D2A9D2B9D2AF22AD
:10033A008E0C8F0D7FC01204617F441204787F3ABD
:10034A00120478AE0CAF0D7C007D641201CBEF2451
:10035A0030FF120478AE0CAF0D7C007D0A1201CB7F
:10036A007C007D0A1201CBED2430FF120478AE0C1A
:10037A00AF0D7C007D0A1201CBED2430FF02047818
:10038A008E0A8F0B7F82120461AE0AAF0B7C007D4E
:10039A00641201CBEF2430FF120478AE0AAF0B7C53
:1003AA00007D0A1201CB7C007D0A1201CBED2430BC
:1003BA00FF120478AE0AAF0B7C007D0A1201CBED66
:0603CA002430FF0204785C
:1002CE00E52E2403FFE433AD07FCE4FEFFC3EF9DF0
:1002DE00EE9C502420000EEF64014E700874362FF1
:1002EE00F8E4F68013742D2FF8E6FB74362FF8A67B
:1002FE00030FBF00010E80D5853621E53770047BD4
:10030E00028005E5372403FBEB7C00FD7E007F01B8
:10031E00C3EF9DEE9C500E74362FF8E662210FBF90
:0B032E0000010E80EB74362FF8A621B2
:0103390022A1
:1004BD00C299D29BB2A3D2B28F993099FDC2992223
:1004A600C299C203D2B2E4F524F525C29BD29920A3
:0704B6000304C20380F922D8
:1003D000E4F522F523C202C2B23002FDC202852C2E
:1003E000277F017E00E52A2403FDE433FCC3EF9D53
:1003F000EE9C500E742C2FF8E662270FBF00010E02
:1004000080E3B2001202CE7FE87E031204110204E0
:01041000A645
:10025600E4F508F5091204491204317F801204619D
:100266007F521204787F3A120478C2983098FD7F44
:100276001D7E0012033A7FE87E03120411A201E4F8
:10028600FE33FF12033A7FE87E03120411E52BB515
:1002960026133001107F1E7E0012033AAF26120489
:1002A600BDC29D8007B20180C12000051203D08027
:1002B600F8AF2F7E0012038AE4F522F523C202C2AC
:0802C600B23002FDD29D80A2BE
:03002300020026B2
:10002600C0E0C0F0C083C082C0D075D000C000C0A0
:1000360001C002C003C004C005C006C00730986CEA
:10004600C298209A610523E5237002052214242C08
:10005600F8A6997F177E0012033A7FE87E03120402
:1000660011742B2523F8E6FF7E0012033A7FE87E03
:1000760003120411E52E2404FFE433FEC3E5239F97
:10008600E5229E40217F187E0012033A7FE87E0318
:10009600120411AF23AE2212033A7FE87E03120444
:1000A60011D202852E2A309A0385992B30996F201A
:1000B6009B6CC299200367C29B0525E52570020546
:1000C60024142436F8E6F5997F157E0012033A7F4C
:1000D600E87E0312041174352525F8E6FF7E00122A
:1000E600033A7FE87E03120411E5372403FFE43365
:1000F600FEC3E5259FE5249E40247F167E0012035D
:100106003A7FE87E03120411AF25AE2412033A7F2C
:10011600E87E03120411D203752400752500D0076A
:10012600D006D005D004D003D002D001D000D0D064
:09013600D082D083D0F0D0E03279
:03000B000204CD1F
:1004CD00C0E00529E5297002052812048FD0E0321D
:10014B00020256E493A3F8E493A34003F68001F272
:10015B0008DFF48029E493A3F85407240CC8C333B5
:10016B00C4540F4420C8834004F456800146F6DF84
:10017B00E4800B010204081020408090000EE47E06
:10018B00019360BCA3FF543F30E509541FFEE49379
:10019B00A360010ECF54C025E060A840B8E493A340
:1001AB00FAE493A3F8E493A3C8C582C8CAC583CA6B
:1001BB00F0A3C8C582C8CAC583CADFE9DEE780BE23
:0100200000DF
:1001CB00C2D5EC30E709B2D5E4C39DFDE49CFCEE4F
:1001DB0030E715B2D5E4C39FFFE49EFE120201C3C4
:1001EB00E49DFDE49CFC800312020130D507C3E4BF
:0601FB009FFFE49EFE22BE
:10020100BC000BBE0029EF8DF084FFADF022E4CCE1
:10021100F875F008EF2FFFEE33FEEC33FCEE9DECAA
:10022100984005FCEE9DFE0FD5F0E9E4CEFD22EDF0
:10023100F8F5F0EE8420D21CFEADF075F008EF2F3A
:10024100FFED33FD4007985006D5F0F222C398FD2B
:050251000FD5F0EA22C8
:00000001FF
