:030000000201D129
:0C01D100787FE4F6D8FD75813F0202182B
:1004F000C2A68F807F057E00120469D2A77F057E89
:0705000000120469C2A722EA
:10050700D2A68F807F057E00120469D2A77F057E61
:0705170000120469C2A722D3
:1004A800C2A5C2A77F381204F07F0C1204F07F06A1
:0804B8001204F07F010204F0C0
:100489008F1A8D1BEF64017005E51B14800AE51AAC
:0F0499006402700AE51B243F4480FF1204F02226
:0A0578008B1E120489AF1E02050756
:060443008B158A168917D3
:10044900120489E4F518AB15AA16A917851882753F
:0F0459008300120107FF6007120507051880E7EF
:010468002271
:08041C008E1A8F1B8C1C8D1D34
:100424007F017E00E4FBEBC3951DE51C6480F8743A
:0E0434008098500AAC1AAD1B1201340B80E800
:010442002297
:020398008B17C1
:10039A00120489851819AF197E00D3EF940074806E
:1003AA009480402CEF24FFFDEE34FFFC7F0A1204F8
:1003BA001CAD177C00CFCDCFCECCCE1201467C002F
:1003CA007D0A120146ED2430FF120507151980C671
:0103DA002200
:10046900D3EF9400EE6480948040147D6E7C00ED9F
:0F0479001D70011CED4C70F7EF1F70E41E80E149
:010488002251
:1004D8005F545F005F525F0054445F0052445F0006
:0804E80052415F0054415F0026
:10000E00012602012B0002280000C180C102C1039B
:02001E00C1011E
:1004C000758920758BF3758DF3D28E7598F04387FF
:0804D00080D2AFD2ACC2B2220F
:10051E005389F0438901C28DD28C758CFC758A1774
:07052E00D2A9D2B9D2AF221D
:100339008D14EF14601814601D14602214602714C2
:10034900602C240570487BFF7A0479D880267BFFCE
:100359007A0479DC801E7BFF7A0479E080167BFFC2
:100369007A0479E4800E7BFF7A0479E880067BFFC2
:100379007A0479EC7D017F021204437FE87E03123F
:0F0389000469751803AB147D017F0212039822DB
:0C056C00AB077518037D037F01020398A4
:1002CD00E52E2403FFE433AD07FCE4FEFFC3EF9DF1
:1002DD00EE9C502420000EEF64014E700874362FF2
:1002ED00F8E4F68013742D2FF8E6FB74362FF8A67C
:1002FD00030FBF00010E80D5853621E53770047BD5
:10030D00028005E5372403FBEB7C00FD7E007F01B9
:10031D00C3EF9DEE9C500E74362FF8E662210FBF91
:0B032D0000010E80EB74362FF8A621B3
:0103380022A2
:10054C00C299D29BB2A3D2B28F993099FDC2992293
:10053500C299C203D2B2E4F524F525C29BD2992013
:070545000304C20380F92248
:1003DB00E4F522F523C202C2B23002FDC202852C23
:1003EB00277F017E00E52A2403FDE433FCC3EF9D48
:1003FB00EE9C500E742C2FF8E662270FBF00010EF7
:10040B0080E3B2001202CD7FE87E0312046902057D
:01041B0035AB
:10025D00E4F508F5091204C01204A87F801204F019
:10026D007F521205077F3A120507C2983098FDA2FA
:10027D0001E433FD7F041203397FE87E0312046924
:10028D00E52BB52616300113A201E433FD7F0512CF
:10029D000339AF2612054CC29D8007B20180CB20D9
:1002AD0000051203DB80F8AF2F7E0012056CE4F51C
:1002BD0022F523C202C2B23002FDD29DC20080AA35
:03002300020026B2
:10002600C0E0C0F0C083C082C0D075D000C000C0A0
:1000360001C002C003C004C005C006C00730985006
:10004600C298209A450523E5237002052214242C24
:10005600F8A699742B2523F8E6FD7F011203397F54
:10006600E87E03120469E52E2404FFE433FEC3E5AB
:10007600239FE5229E4013AD237F031203397FE8B9
:100086007E03120469D202852E2A309A0385992BA3
:10009600309953209B50C29920034BC29B0525E5FE
:1000A6002570020524142436F8E6F59974352525BD
:1000B600F8E6FDE4FF1203397FE87E03120469E5E2
:1000C600372403FFE433FEC3E5259FE5249E40164F
:1000D600AD257F021203397FE87E03120469D2033D
:1000E600752400752500D007D006D005D004D003AE
:1000F600D002D001D000D0D0D082D083D0F0D0E0D2
:0101060032C6
:03000B0002055C8F
:10055C00C0E00529E5297002052812051ED0E032FD
:1001DD0002025DE493A3F8E493A34003F68001F2D9
:1001ED0008DFF48029E493A3F85407240CC8C33323
:1001FD00C4540F4420C8834004F456800146F6DFF2
:10020D00E4800B010204081020408090000EE47E73
:10021D00019360BCA3FF543F30E509541FFEE493E6
:10022D00A360010ECF54C025E060A840B8E493A3AD
:10023D00FAE493A3F8E493A3C8C582C8CAC583CAD8
:10024D00F0A3C8C582C8CAC583CADFE9DEE780BE90
:0100200000DF
:10010700BB010CE58229F582E5833AF583E02250AD
:1001170006E92582F8E622BBFE06E92582F8E222F7
:0D012700E58229F582E5833AF583E4932211
:10013400EF8DF0A4A8F0CF8CF0A428CE8DF0A42EDF
:02014400FE2299
:10014600C2D5EC30E709B2D5E4C39DFDE49CFCEED4
:1001560030E715B2D5E4C39FFFE49EFE12017CC3CF
:10016600E49DFDE49CFC800312017C30D507C3E4CA
:060176009FFFE49EFE2243
:10017C00BC000BBE0029EF8DF084FFADF022E4CC67
:10018C00F875F008EF2FFFEE33FEEC33FCEE9DEC30
:10019C00984005FCEE9DFE0FD5F0E9E4CEFD22ED76
:1001AC00F8F5F0EE8420D21CFEADF075F008EF2FC0
:1001BC00FFED33FD4007985006D5F0F222C398FDB1
:0501CC000FD5F0EA224E
:00000001FF
