:03000000020026D5
:0C002600787FE4F6D8FD75810D02006DB6
:05001E00736C617665C2
:06019C00010800010D0046
:0F011D008F807F057E0012012CD2A77F057E0008
:10012C00D3EF9400EE940040147D6E7C00ED1D70B6
:0D013C00011CED4C70F7EF1F70E61E80E314
:010149002293
:08019400C2A612011DC2A72240
:0901830075F00A84E5F02430FF58
:08018C00D2A612011DC2A72238
:10016B00C2A5C2A77F381201947F0C1201947F069F
:08017B001201947F01020194BE
:10000300758920758BFD758DFDE4F587D28EC29FB2
:0B001300D29ED29CD2AFD2ACC2B2226F
:1000B20012000312016B7F801201947F5212018C95
:1000C2007F3A12018CE5086049050DE50DC3940ADB
:1000D2004040E4F50DF508E50964027035B2A37FEE
:1000E20082120194E50A75F064842430FF12018CB7
:1000F200E50A75F00A84120183E50A120183D2B27D
:100102007599023099FDC299850A993099FDC29973
:0B011200C2B27F017E0012012C80AA07
:0300230002014A8D
:10014A00C0E0C0D075D000C00030980EC2987409C3
:10015A002508F8A6990508750D00D000D0D0D0E082
:01016A003262
:100032000200B2E493A3F8E493A34003F68001F232
:1000420008DFF48029E493A3F85407240CC8C333CF
:10005200C4540F4420C8834004F456800146F6DF9E
:10006200E4800B010204081020408090019CE47E91
:10007200019360BCA3FF543F30E509541FFEE49393
:10008200A360010ECF54C025E060A840B8E493A35A
:10009200FAE493A3F8E493A3C8C582C8CAC583CA85
:1000A200F0A3C8C582C8CAC583CADFE9DEE780BE3D
:0101A200005C
:00000001FF
