:030000000201D129
:0C01D100787FE4F6D8FD75813F0202182B
:1004F700C2A68F807F057E00120470D2A77F057E7B
:0705070000120470C2A722DC
:10050E00D2A68F807F057E00120470D2A77F057E53
:07051E0000120470C2A722C5
:1004AF00C2A5C2A77F381204F77F0C1204F77F068C
:0804BF001204F77F010204F7AB
:100490008F1A8D1BEF64017005E51B14800AE51AA5
:0F04A0006402700AE51B243F4480FF1204F72218
:0A057F008B1E120490AF1E02050E41
:06044A008B158A168917CC
:10045000120490E4F518AB15AA16A9178518827531
:0F0460008300120107FF600712050E051880E7E1
:01046F00226A
:080423008E1A8F1B8C1C8D1D2D
:10042B007F017E00E4FBEBC3951DE51C6480F87433
:0E043B008098500AAC1AAD1B1201340B80E8F9
:010449002290
:02039F008B17BA
:1003A100120490851819AF197E00D3EF9400748060
:1003B1009480402CEF24FFFDEE34FFFC7F0A1204F1
:1003C10023AD177C00CFCDCFCECCCE1201467C0021
:1003D1007D0A120146ED2430FF12050E151980C663
:0103E10022F9
:10047000D3EF9400EE6480948040147D6E7C00ED98
:0F0480001D70011CED4C70F7EF1F70E41E80E142
:01048F00224A
:1004DF005F545F005F525F0054445F0052445F00FF
:0804EF0052415F0054415F001F
:10000E00012602012B0002280000C180C102C1039B
:02001E00C1011E
:1004C700758920758BF3758DF3D28E7598F04387F8
:0804D70080D2AFD2ACC2B22208
:100525005389F0438901C28DD28C758CFC758A176D
:07053500D2A9D2B9D2AF2216
:100340008D14EF14601814601D14602214602714BB
:10035000602C240570487BFF7A0479DF80267BFFC0
:100360007A0479E3801E7BFF7A0479E780167BFFAD
:100370007A0479EB800E7BFF7A0479EF80067BFFAD
:100380007A0479F37D017F0212044A7FE87E03122A
:0F0390000470751803AB147D017F0212039F22C6
:0C057300AB077518037D037F0102039F96
:1002D400E52E2403FFE433AD07FCE4FEFFC3EF9DEA
:1002E400EE9C502420000EEF64014E700874362FEB
:1002F400F8E4F68013742D2FF8E6FB74362FF8A675
:10030400030FBF00010E80D5853621E53770047BCD
:10031400028005E5372403FBEB7C00FD7E007F01B2
:10032400C3EF9DEE9C500E74362FF8E662210FBF8A
:0B03340000010E80EB74362FF8A621AC
:01033F00229B
:10055300C299D29BB2A3D2B28F993099FDC299228C
:10053C00C299C203D2B2E4F524F525C29BD299200C
:07054C000304C20380F92241
:1003E200E4F522F523C202C2B23002FDC202852C1C
:1003F200277F017E00E52A2403FDE433FCC3EF9D41
:10040200EE9C500E742C2FF8E662270FBF00010EEF
:1004120080E3B2001202D47FE87E03120470020568
:010422003C9D
:10025D00E4F508F5091204C71204AF7F801204F704
:10026D007F5212050E7F3A12050EC2983098FDA2EC
:10027D0001E433FD7F041203407FE87E0312047016
:10028D00E52BB52616300113A201E433FD7F0512CF
:10029D000340AF26120553C29D800E7F0A7E0012C9
:1002AD000470B20180C42000051203E280F8AF2F64
:1002BD007E00120573E4F522F523C202C2B23002AC
:0702CD00FDD29DC20080A3D9
:03002300020026B2
:10002600C0E0C0F0C083C082C0D075D000C000C0A0
:1000360001C002C003C004C005C006C00730985006
:10004600C298209A450523E5237002052214242C24
:10005600F8A699742B2523F8E6FD7F011203407F4D
:10006600E87E03120470E52E2404FFE433FEC3E5A4
:10007600239FE5229E4013AD237F031203407FE8B2
:100086007E03120470D202852E2A309A0385992B9C
:10009600309953209B50C29920034BC29B0525E5FE
:1000A6002570020524142436F8E6F59974352525BD
:1000B600F8E6FDE4FF1203407FE87E03120470E5D4
:1000C600372403FFE433FEC3E5259FE5249E40164F
:1000D600AD257F021203407FE87E03120470D2032F
:1000E600752400752500D007D006D005D004D003AE
:1000F600D002D001D000D0D0D082D083D0F0D0E0D2
:0101060032C6
:03000B0002056388
:10056300C0E00529E52970020528120525D0E032EF
:1001DD0002025DE493A3F8E493A34003F68001F2D9
:1001ED0008DFF48029E493A3F85407240CC8C33323
:1001FD00C4540F4420C8834004F456800146F6DFF2
:10020D00E4800B010204081020408090000EE47E73
:10021D00019360BCA3FF543F30E509541FFEE493E6
:10022D00A360010ECF54C025E060A840B8E493A3AD
:10023D00FAE493A3F8E493A3C8C582C8CAC583CAD8
:10024D00F0A3C8C582C8CAC583CADFE9DEE780BE90
:0100200000DF
:10010700BB010CE58229F582E5833AF583E02250AD
:1001170006E92582F8E622BBFE06E92582F8E222F7
:0D012700E58229F582E5833AF583E4932211
:10013400EF8DF0A4A8F0CF8CF0A428CE8DF0A42EDF
:02014400FE2299
:10014600C2D5EC30E709B2D5E4C39DFDE49CFCEED4
:1001560030E715B2D5E4C39FFFE49EFE12017CC3CF
:10016600E49DFDE49CFC800312017C30D507C3E4CA
:060176009FFFE49EFE2243
:10017C00BC000BBE0029EF8DF084FFADF022E4CC67
:10018C00F875F008EF2FFFEE33FEEC33FCEE9DEC30
:10019C00984005FCEE9DFE0FD5F0E9E4CEFD22ED76
:1001AC00F8F5F0EE8420D21CFEADF075F008EF2FC0
:1001BC00FFED33FD4007985006D5F0F222C398FDB1
:0501CC000FD5F0EA224E
:00000001FF
