:030000000201D129
:0C01D100787FE4F6D8FD75813F0202182B
:10046600D3EF9400EE6480948040147D6E7C00EDA2
:0F0476001D70011CED4C70F7EF1F70E41E80E14C
:010485002254
:1004ED00C2A68F807F057E00120466D2A77F057E8F
:0704FD0000120466C2A722F1
:10050400D2A68F807F057E00120466D2A77F057E67
:0705140000120466C2A722D9
:1004A500C2A5C2A77F381204ED7F0C1204ED7F06AA
:0804B5001204ED7F010204EDC9
:100486008F188D19EF64017005E51914800AE518B7
:0F0496006402700AE519243F4480FF1204ED222E
:0A0573008B1C120486AF1C02050465
:060440008B138A148915DC
:10044600120486E4F516AB13AA14A915851682754F
:0F0456008300120107FF6007120504051680E7F7
:010465002274
:080419008E188F198C1A8D1B3F
:100421007F017E00E4FBEBC3951BE51A6480F87441
:0E0431008098500AAC18AD191201340B80E807
:01043F00229A
:020395008B15C6
:10039700120486851617AF177E00D3EF940074807A
:1003A7009480402CEF24FFFDEE34FFFC7F0A1204FB
:1003B70019AD157C00CFCDCFCECCCE1201467C0037
:1003C7007D0A120146ED2430FF120504151780C679
:0103D7002203
:1004D5005F545F005F525F0054445F0052445F0009
:0804E50052415F0054415F0029
:10000E00012602012B0002280000C180C102C1039B
:02001E00C1011E
:1004BD00758920758BFA758DFAD28E7598F04387F4
:0804CD0080D2AFD2ACC2B22212
:10051B005389F0438901C28DD28C758CFC758A1777
:07052B00D2A9D2B9D2AF2220
:100336008D12EF14601814601D14602214602714C7
:10034600602C240570487BFF7A0479D580267BFFD4
:100356007A0479D9801E7BFF7A0479DD80167BFFCB
:100366007A0479E1800E7BFF7A0479E580067BFFCB
:100376007A0479E97D017F021204407FE87E031248
:0F0386000466751603AB127D017F0212039522E8
:0C056700AB077516037D037F01020395AE
:1002CA00E52E2403FFE433AD07FCE4FEFFC3EF9DF4
:1002DA00EE9C502420000EEF64014E700874362FF5
:1002EA00F8E4F68013742D2FF8E6FB74362FF8A67F
:1002FA00030FBF00010E80D5853621E53770047BD8
:10030A00028005E5372403FBEB7C00FD7E007F01BC
:10031A00C3EF9DEE9C500E74362FF8E662210FBF94
:0B032A0000010E80EB74362FF8A621B6
:0103350022A5
:0E055900C299D29BD2B28F993099FDC29922DD
:10053200C299C203D2B2E4F524F525C29BD2992016
:070542000304C20380F9224B
:1003D800E4F522F523C202C2B23002FDC202852C26
:1003E800277F017E00E52A2403FDE433FCC3EF9D4B
:1003F800EE9C500E742C2FF8E662270FBF00010EFA
:1004080080E3B2001202CA7FE87E03120466020586
:0104180032B1
:10025D00C2A31204BD1204A57F801204ED7F5212B9
:10026D0005047F3A120504C2983098FDA201E433CB
:10027D00FD7F041203367FE87E03120466E52BB57D
:10028D002616300113A201E433FD7F05120336AFAC
:10029D0026120559C29D8007B20180CB20000512A0
:1002AD0003D880F8AF2F7E00120567E4F522F52301
:0D02BD00C202C2B23002FDD29DC20080AA72
:03002300020026B2
:10002600C0E0C0F0C083C082C0D075D000C000C0A0
:1000360001C002C003C004C005C006C00730985006
:10004600C298209A450523E5237002052214242C24
:10005600F8A699742B2523F8E6FD7F011203367F57
:10006600E87E03120466E52E2404FFE433FEC3E5AE
:10007600239FE5229E4013AD237F031203367FE8BC
:100086007E03120466D202852E2A309A0385992BA6
:10009600309953209B50C29920034BC29B0525E5FE
:1000A6002570020524142436F8E6F59974352525BD
:1000B600F8E6FDE4FF1203367FE87E03120466E5E8
:1000C600372403FFE433FEC3E5259FE5249E40164F
:1000D600AD257F021203367FE87E03120466D20343
:1000E600752400752500D007D006D005D004D003AE
:1000F600D002D001D000D0D0D082D083D0F0D0E0D2
:0101060032C6
:03000B00020549A2
:10054900C0E00529E5297002052812051BD0E03213
:1001DD0002025DE493A3F8E493A34003F68001F2D9
:1001ED0008DFF48029E493A3F85407240CC8C33323
:1001FD00C4540F4420C8834004F456800146F6DFF2
:10020D00E4800B010204081020408090000EE47E73
:10021D00019360BCA3FF543F30E509541FFEE493E6
:10022D00A360010ECF54C025E060A840B8E493A3AD
:10023D00FAE493A3F8E493A3C8C582C8CAC583CAD8
:10024D00F0A3C8C582C8CAC583CADFE9DEE780BE90
:0100200000DF
:10010700BB010CE58229F582E5833AF583E02250AD
:1001170006E92582F8E622BBFE06E92582F8E222F7
:0D012700E58229F582E5833AF583E4932211
:10013400EF8DF0A4A8F0CF8CF0A428CE8DF0A42EDF
:02014400FE2299
:10014600C2D5EC30E709B2D5E4C39DFDE49CFCEED4
:1001560030E715B2D5E4C39FFFE49EFE12017CC3CF
:10016600E49DFDE49CFC800312017C30D507C3E4CA
:060176009FFFE49EFE2243
:10017C00BC000BBE0029EF8DF084FFADF022E4CC67
:10018C00F875F008EF2FFFEE33FEEC33FCEE9DEC30
:10019C00984005FCEE9DFE0FD5F0E9E4CEFD22ED76
:1001AC00F8F5F0EE8420D21CFEADF075F008EF2FC0
:1001BC00FFED33FD4007985006D5F0F222C398FDB1
:0501CC000FD5F0EA224E
:00000001FF
