:03000000020259A0
:0C025900787FE4F6D8FD7581470202A012
:100613005F545F005F525F0054445F0052445F00C9
:1006230052415F0054415F005254410052545F00F5
:10067200C101C102C18002280000012C00012F012A
:09068200012E00012D00012700EA
:1006E900C2A31206FF12068C752F01E4F52E12041F
:0606F900DA1202E580F8B0
:1003AF00852C3A852F3B852B3CE4FFFEC3EF952B25
:1003BF00EE952A500D743D2FF8A62E0FBF00010E9B
:1003CF0080EA752100853A227E007F01E52B240308
:1003DF00FDE4352AFCC3EF9DEE9C5015743A2FF8BF
:1003EF00E62522F522E43521F5210FBF00010E800D
:0803FF00DB743D252BF8A6225A
:0104070022D2
:10050F008F0BE50B75F064842430FF1206D2E50BD8
:10051F0075F00A8475F00A84E5F02430FF1206D2D4
:0E052F00E50B75F00A84E5F02430FF0206D2D9
:1001CC008D14EFB4080040030202589001DEF828A9
:1001DC0028730201F60201FE02020602020E02025E
:1001EC001602021E02022602022E7BFF7A067913E9
:1001FC0080367BFF7A067917802E7BFF7A06791B77
:10020C0080267BFF7A06791F801E7BFF7A06792376
:10021C0080167BFF7A067927800E7BFF7A06792B76
:10022C0080067BFF7A06792F7D097F0212058B7F72
:10023C00E87E03120633E514FB7A007519037D0979
:0D024C007F021204557FE87E031206332264
:10049A00D2B2C299D29B852F993099FDC299C2B224
:1004AA00C298E52770047F0580027F06AD2F1201EE
:1004BA00CCE4F528F5291206A4C3E5299407E52812
:0F04CA00940040F5E52D652F6005052712049A73
:0104D9002200
:10053D008F088C098D0A7FC01206BB7F521206D21E
:10054D00E5082430FF1206D27F3A1206D274302508
:07055D000AF8E6FF02050F9A
:1005B100D2B2C299C29BE4F525F526D2993002FD4B
:1005C100C202C2B2C298E4F523F5243001FDC20192
:0105D1002207
:1002E500E4FF12034CEF24FE601914601914601921
:1002F50024037052E52F640160047F0180027F02B0
:100305008F2F22052E22152E2212049A1204087C04
:10031500007D05120196ED2401F52BE43CF52AC27A
:100325009BC29D1203AF80032000051205B180F822
:100335007D027C00AF2F12053D12000E3002FDC27A
:0603450002E4F52DD2B226
:01034B00228F
:1005D200E4FFAD3AFCFE0F743A2FF8E62DFDE43C41
:1005E200FC0FBF00010EEF64034E70EBAE04AF05CB
:0105F20022E6
:10000E00D2B2C299C29BE4F53C1205D28F3DD29971
:04001E003002FD228D
:1006FF00758920758BBF758DBF438780D28E759896
:06070F00D8D2AFD2AC22EB
:1006A4005389F0438901C28DD28C758CFC758A17ED
:0706B400D2A9D2B9D2AF2296
:1004DA007F801206BB7F541206D27F831206BB7F2F
:1004EA00411206D27F3A1206D2E52F2430FF1206B5
:1004FA00D27F881206BB7F441206D27F3A1206D2F6
:05050A00AF2E02050FF9
:03002300020026B2
:10002600C0E0C0F0C083C082C0D075D000C000C0A0
:1000360001C002C003C004C005C006C00730995500
:03004600209B52AA
:10004900C29920024DC29B0526E52670020525149A
:10005900243AF8E6F5993000047F0080027F078F83
:100069001374392526F8E6FD1201CCE53C2404FF7A
:10007900E433FEC3E5269FE5259E4016C2B2AD26B0
:100089007F021201CCD202752500752600D20075B7
:0200990027003E
:10009B00309849C298209A3E0524E5247002052326
:1000AB00142430F8A699742F2524F8E6FD7F01124D
:1000BB0001CCE5312403FFE433FEC3E5249FE523A4
:1000CB009E4013AD247F031201CCE5317003C38036
:1000DB0001D39200D201309A0385992DD007D00617
:1000EB00D005D004D003D002D001D000D0D0D08224
:0700FB00D083D0F0D0E03209
:03000B000205F3F8
:1005F300C0E0C0D00529E52970020528C39407E5AA
:100603002894005006758CFC758A17D0D0D0E03240
:10034C00E4F5082090137F14FE1206333090FD7FE5
:10035C00147E001206337508012091147F147E0060
:10036C001206333091FD7F147E001206337508029D
:10037C002092147F147E001206333092FD7F147E7F
:10038C00001206337508032093147F147E001206A6
:10039C00333093FD7F147E00120633750804AF08CA
:0203AC007E00D1
:0103AE00222C
:10063300D3EF9400EE6480948040147D6E7C00EDD3
:0F0643001D70011CED4C70F7EF1F70E41E80E17D
:010652002285
:1006BB00C2A68F807F057E00120633D2A77F057EF0
:0706CB0000120633C2A72252
:1006D200D2A68F807F057E00120633D2A77F057EC9
:0706E20000120633C2A7223B
:10068C00C2A5C2A77F381206BB7F0C1206BB7F0621
:08069C001206BB7F010206BB40
:100653008F1B8D1CEF64017005E51C14800AE51BDC
:0F0663006402700AE51C243F4480FF1206BB228C
:0A0715008B1F120653AF1F0206D21D
:06058B008B158A1689178A
:10059100120653E4F518AB15AA16A917851882752A
:0F05A1008300120102FF60071206D2051880E7DF
:0105B0002228
:080564008E1B8F1C8C1D8D1EE7
:10056C007F017E00E4FBEBC3951EE51D6480F874EF
:0E057C008098500AAC1BAD1C12012F0B80E8BA
:01058A00224E
:040455008A178B185F
:1004590012065385191AAF1A7E00D3EF94007480DF
:100469009480402CEF24FFFDEE34FFFC7F0A120537
:1004790064AC17AD18CFCDCFCECCCE1201417C00E4
:100489007D0A120141ED2430FF1206D2151A80C6E9
:010499002240
:100265000206E9E493A3F8E493A34003F68001F2C0
:1002750008DFF48029E493A3F85407240CC8C3339A
:10028500C4540F4420C8834004F456800146F6DF69
:10029500E4800B0102040810204080900672E47E81
:1002A500019360BCA3FF543F30E509541FFEE4935E
:1002B500A360010ECF54C025E060A840B8E493A325
:1002C500FAE493A3F8E493A3C8C582C8CAC583CA50
:1002D500F0A3C8C582C8CAC583CADFE9DEE780BE08
:01068B00006E
:10010200BB010CE58229F582E5833AF583E02250B2
:1001120006E92582F8E622BBFE06E92582F8E222FC
:0D012200E58229F582E5833AF583E4932216
:10012F00EF8DF0A4A8F0CF8CF0A428CE8DF0A42EE4
:02013F00FE229E
:10014100BC000BBE0029EF8DF084FFADF022E4CCA2
:10015100F875F008EF2FFFEE33FEEC33FCEE9DEC6B
:10016100984005FCEE9DFE0FD5F0E9E4CEFD22EDB1
:10017100F8F5F0EE8420D21CFEADF075F008EF2FFB
:10018100FFED33FD4007985006D5F0F222C398FDEC
:050191000FD5F0EA2289
:10019600C2D5EC30E709B2D5E4C39DFDE49CFCEE84
:1001A60030E715B2D5E4C39FFFE49EFE120141C3BA
:1001B600E49DFDE49CFC800312014130D507C3E4B5
:0601C6009FFFE49EFE22F3
:10040800AC44AD45AE46AF477810EC4D4E4F700446
:100418007CA57DA5C3EC13FCED13FDEE13FEEF13D5
:10042800FF5010EC64CCFCED644CFDEE644EFEEF26
:1004380064CEFFD8DF8C448D458E468F47EE547FBF
:0D044800FE228E448F4574A5F546F547222F
:00000001FF
