:030000000201E614
:0C01E600787FE4F6D8FD75814702022DF9
:1005EB005F545F005F525F0054445F0052445F00F2
:1005FB0052415F0054415F005254410052545F001E
:10066800C101C102C18002280000012C00012F0134
:09067800012E00012D00012700F4
:10000E001206DF120682752F01E4F52E1204F1128C
:04001E00035880F80B
:10040D00852C3A852F3B852B3CE4FFFEC3EF952BC6
:10041D00EE952A500D743D2FF8A62E0FBF00010E3C
:10042D0080EA752100853A227E007F01E52B2403A9
:10043D00FDE4352AFCC3EF9DEE9C500E743A2FF867
:10044D00E662220FBF00010E80E2743D252BF8A657
:01045D00227C
:01045E00227B
:100526008F0BE50B75F064842430FF1206C8E50BCB
:1005360075F00A8475F00A84E5F02430FF1206C8C7
:0E054600E50B75F00A84E5F02430FF0206C8CC
:100272008D14EFB40800507A900281F82828730296
:1002820002990202A10202A90202B10202B9020209
:10029200C10202C90202D17BFF7A0579EB80367B6B
:1002A200FF7A0579EF802E7BFF7A0579F380267B32
:1002B200FF7A0579F7801E7BFF7A0579FB80167B32
:1002C200FF7A0579FF800E7BFF7A06790380067B31
:1002D200FF7A0679077D097F021205A27FE87E0375
:1002E20012060BE514FB7A007519037D097F0212D1
:0302F20004AC2237
:1003BA00D2B2C299D29B852F993099FDC299E5276D
:1003CA0070047F0580027F06AD2F1202727FE87EDD
:1003DA000312060BC2B2C2987FD07E0712060BE444
:1003EA00F528F52912069AC3E5299407E528940009
:1003FA0040F5E4F528F529E52D652F600505271256
:02040A0003BA33
:01040C0022CD
:100554008F088C098D0A7FC01206B17F521206C81B
:10056400E5082430FF1206C87F3A1206C874302505
:070574000AF8E6FF0205266C
:1005C800D2B2C299C29BE4F525F526D2993002FD34
:1005D800C202C2B2C298C201E4F523F5243001FD7B
:0305E800C201222B
:10035800E4FF1202F5EF24FE601914601914601905
:100368002403704DE52F640160047F0180027F0241
:100378008F2F22052E22152E221203BA12045F7C1B
:10038800007D051201B0ED2401F52BE43CF52AC2ED
:100398009BC29D12040D80032000051205C880F839
:1003A8007D027C00AF2F1205541206F53002FDC203
:0103B8000242
:0103B9002221
:10064A00E4FFAD3AFCFE0F743A2FF8E662050FBFDD
:0D065A0000010EEF64034E70EEAE04AF051C
:010667002270
:1006F500D2B2C299C29BE4F53C12064A8F3DD2990B
:040705003002FD229F
:1006DF00758920758BF3758DF3438780D28E75984E
:0606EF00D8D2AFD2AC220C
:10069A005389F0438901C28DD28C758CFC758A17F7
:0706AA00D2A9D2B9D2AF22A0
:1004F1007F801206B17F541206C87F831206B17F36
:10050100411206C87F3A1206C8E52F2430FF1206B1
:10051100C87F881206B17F441206C87F3A1206C806
:05052100AF2E020526CB
:03002300020026B2
:10002600C0E0C0F0C083C082C0D075D000C000C0A0
:1000360001C002C003C004C005C006C007309961F4
:03004600209B5E9E
:10004900C299200259C29B0526E52670020525148E
:10005900243AF8E6F5993000047F0080027F078F83
:100069001374392526F8E6FD1202727FE87E031221
:10007900060BE53C2404FFE433FEC3E5269FE52592
:100089009E401BAD267F021202727FE87E03120694
:0E0099000BD202752500752600D200752700D7
:1000A700309857C298209A4C0524E52470020523FE
:1000B700142430F8A699742F2524F8E6FD7F011241
:1000C70002727FE87E0312060BE5312403FFE43357
:1000D700FEC3E5249FE5239E401AAD247F03120249
:1000E700727FE87E0312060BD201E5317003C380ED
:1000F70001D39200309A0385992DD007D006D005F9
:10010700D004D003D002D001D000D0D0D082D08389
:05011700D0F0D0E03241
:03000B00020709E0
:10070900C0E00529E5297002052812069AD0E032D1
:1002F500E4F5082090137F14FE12060B3090FD7F65
:10030500147E0012060B7508012091147F147E00DF
:1003150012060B3091FD7F147E0012060B75080244
:100325002092147F147E0012060B3092FD7F147EFE
:100335000012060B7508032093147F147E00120625
:100345000B3093FD7F147E0012060B750804AF0871
:020355007E0028
:010357002283
:10060B00D3EF9400EE6480948040147D6E7C00EDFB
:0F061B001D70011CED4C70F7EF1F70E41E80E1A5
:01062A0022AD
:1006B100C2A68F807F057E0012060BD2A77F057E22
:0706C1000012060BC2A72284
:1006C800D2A68F807F057E0012060BD2A77F057EFB
:0706D8000012060BC2A7226D
:10068200C2A5C2A77F381206B17F0C1206B17F063F
:080692001206B17F010206B15E
:10062B008F1B8D1CEF64017005E51C14800AE51B04
:0F063B006402700AE51C243F4480FF1206B122BE
:0A0719008B1F12062BAF1F0206C84B
:0605A2008B158A16891773
:1005A80012062BE4F518AB15AA16A917851882753B
:0F05B800830012011CFF60071206C8051880E7B8
:0105C7002211
:08057B008E1B8F1C8C1D8D1ED0
:100583007F017E00E4FBEBC3951EE51D6480F874D8
:0E0593008098500AAC1BAD1C1201490B80E889
:0105A1002237
:0404AC008A178B1808
:1004B00012062B85191AAF1A7E00D3EF94007480B0
:1004C0009480402CEF24FFFDEE34FFFC7F0A1205E0
:1004D0007BAC17AD18CFCDCFCECCCE12015B7C005C
:1004E0007D0A12015BED2430FF1206C8151A80C682
:0104F00022E9
:1001F20002000EE493A3F8E493A34003F68001F215
:1002020008DFF48029E493A3F85407240CC8C3330D
:10021200C4540F4420C8834004F456800146F6DFDC
:10022200E4800B0102040810204080900668E47EFE
:10023200019360BCA3FF543F30E509541FFEE493D1
:10024200A360010ECF54C025E060A840B8E493A398
:10025200FAE493A3F8E493A3C8C582C8CAC583CAC3
:10026200F0A3C8C582C8CAC583CADFE9DEE780BE7B
:010681000078
:10011C00BB010CE58229F582E5833AF583E0225098
:10012C0006E92582F8E622BBFE06E92582F8E222E2
:0D013C00E58229F582E5833AF583E49322FC
:10014900EF8DF0A4A8F0CF8CF0A428CE8DF0A42ECA
:02015900FE2284
:10015B00BC000BBE0029EF8DF084FFADF022E4CC88
:10016B00F875F008EF2FFFEE33FEEC33FCEE9DEC51
:10017B00984005FCEE9DFE0FD5F0E9E4CEFD22ED97
:10018B00F8F5F0EE8420D21CFEADF075F008EF2FE1
:10019B00FFED33FD4007985006D5F0F222C398FDD2
:0501AB000FD5F0EA226F
:1001B000C2D5EC30E709B2D5E4C39DFDE49CFCEE6A
:1001C00030E715B2D5E4C39FFFE49EFE12015BC386
:1001D000E49DFDE49CFC800312015B30D507C3E481
:0601E0009FFFE49EFE22D9
:10045F00AC44AD45AE46AF477810EC4D4E4F7004EF
:10046F007CA57DA5C3EC13FCED13FDEE13FEEF137E
:10047F00FF5010EC64CCFCED644CFDEE644EFEEFCF
:10048F0064CEFFD8DF8C448D458E468F47EE547F68
:0D049F00FE228E448F4574A5F546F54722D8
:00000001FF
